:020000040000fa
:08000000820104000000000071
:020000040000fa
:040008007c01000077
:020000040000fa
:04000c007c01000073
:020000040000fa
:040010007c0100006f
:020000040000fa
:040014007c0100006b
:020000040000fa
:040018007c01000067
:020000040000fa
:04001c007c01000063
:020000040000fa
:040020007c0100005f
:020000040000fa
:040024007c0100005b
:020000040000fa
:040028007c01000057
:020000040000fa
:04002c007c01000053
:020000040000fa
:040030007c0100004f
:020000040000fa
:040034003202000094
:020000040000fa
:040038007c01000047
:020000040000fa
:04003c007c01000043
:020000040000fa
:040040007c0100003f
:020000040000fa
:040044007c0100003b
:020000040000fa
:040048007c01000037
:020000040000fa
:04004c007c01000033
:020000040000fa
:040050007c0100002f
:020000040000fa
:040054007c0100002b
:020000040000fa
:040058007c01000027
:020000040000fa
:04005c007c01000023
:020000040000fa
:040060007c0100001f
:020000040000fa
:040064007c0100001b
:020000040000fa
:040068007c01000017
:020000040000fa
:04006c007c01000013
:020000040000fa
:040070007c0100000f
:020000040000fa
:040074007c0100000b
:020000040000fa
:040078007c01000007
:020000040000fa
:04007c007c01000003
:020000040000fa
:040080007c010000ff
:020000040000fa
:040084007c010000fb
:020000040000fa
:040088007c010000f7
:020000040000fa
:04008c007c010000f3
:020000040000fa
:040090007c010000ef
:020000040000fa
:040094007c010000eb
:020000040000fa
:040098007c010000e7
:020000040000fa
:04009c007c010000e3
:020000040000fa
:0400a0007c010000df
:020000040000fa
:0400a4007c010000db
:020000040000fa
:0400a8007c010000d7
:020000040000fa
:0400ac007c010000d3
:020000040000fa
:0400b0007c010000cf
:020000040000fa
:0400b4007c010000cb
:020000040000fa
:0400b8007c010000c7
:020000040000fa
:0400bc007c010000c3
:020000040000fa
:0400c0007c010000bf
:020000040000fa
:0400c4007c010000bb
:020000040000fa
:0400c8007c010000b7
:020000040000fa
:0400cc007c010000b3
:020000040000fa
:0400d0007c010000af
:020000040000fa
:0400d4007c010000ab
:020000040000fa
:0400d8007c010000a7
:020000040000fa
:040108007c01000076
:020000040000fa
:04010c007c01000072
:020000040000fa
:040110007c0100006e
:020000040000fa
:040114007c0100006a
:020000040000fa
:040118007c01000066
:020000040000fa
:04011c007c01000062
:020000040000fa
:040120007c0100005e
:020000040000fa
:040124007c0100005a
:020000040000fa
:040128007c01000056
:020000040000fa
:04012c007c01000052
:020000040000fa
:040130007c0100004e
:020000040000fa
:040134003202000093
:020000040000fa
:040138007c01000046
:020000040000fa
:04013c007c01000042
:020000040000fa
:040140007c0100003e
:020000040000fa
:040144007c0100003a
:020000040000fa
:040148007c01000036
:020000040000fa
:04014c007c01000032
:020000040000fa
:040150007c0100002e
:020000040000fa
:040154007c0100002a
:020000040000fa
:040158007c01000026
:020000040000fa
:04015c007c01000022
:020000040000fa
:040160007c0100001e
:020000040000fa
:040164007c0100001a
:020000040000fa
:040168007c01000016
:020000040000fa
:04016c007c01000012
:020000040000fa
:040170007c0100000e
:020000040000fa
:040174007c0100000a
:020000040000fa
:040178007c01000006
:020000040000fa
:04017c007c01000002
:020000040000fa
:040180007c010000fe
:020000040000fa
:040184007c010000fa
:020000040000fa
:040188007c010000f6
:020000040000fa
:04018c007c010000f2
:020000040000fa
:040190007c010000ee
:020000040000fa
:040194007c010000ea
:020000040000fa
:040198007c010000e6
:020000040000fa
:04019c007c010000e2
:020000040000fa
:0401a0007c010000de
:020000040000fa
:0401a4007c010000da
:020000040000fa
:0401a8007c010000d6
:020000040000fa
:0401ac007c010000d2
:020000040000fa
:0401b0007c010000ce
:020000040000fa
:0401b4007c010000ca
:020000040000fa
:0401b8007c010000c6
:020000040000fa
:0401bc007c010000c2
:020000040000fa
:0401c0007c010000be
:020000040000fa
:0401c4007c010000ba
:020000040000fa
:0401c8007c010000b6
:020000040000fa
:0401cc007c010000b2
:020000040000fa
:0401d0007c010000ae
:020000040000fa
:0401d4007c010000aa
:020000040000fa
:0401d8007c010000a6
:020000040000fa
:100200008a1f78008b1f780000000600910188008b
:10021000800478000000eb001a003700e2844400fc
:1002200032a0b4009905ba00e284440032a0b400c0
:100230009906ba00e284440032a0b4000006eb0044
:10024000476fde00fd07b200636ce10003003a0077
:10025000ebff07000000eb000a003700606ce100d4
:1002600004003a00005deb008b05e900fdff3e0055
:10027000040037006168e100010032000086eb00f5
:100280000b00070019c7ba001905ba000e04e000f8
:1002900003003a000a00e000e0ff3a000000060018
:1002a000fe07b2009e0188008a047800f5ff37003f
:1002b000395dba008b05e9000c003200295dba00f7
:1002c0008b05e900080032000c00e00003003a0052
:1002d000e284440032a0b400f5ff370019ddba0013
:1002e0008b05e900faff3a008904e800e184440044
:1002f00032a0b400000006000040da000000fe005a
:0403000000000500f4
:020000040000fa
:100304002f88200000f72000000188000000000072
:100314002602020000000000fe01020000000000ae
:10032400000000000017800000000000c003b200bd
:100334004200de00d522ae00ac0104000000000043
:10034400bc01040000000000000000009201040051
:1003540000000000d502ae00d60104000000000039
:10036400cc01040000000000000000009201040021
:1003740000000000d502ae00e0010400000000000f
:10038400ea010400000000000000000092010400e3
:1003940000000000650040004016880000000000d6
:1003a400920104000000000065005000401688001f
:1003b4000000000092010400000000006500b80085
:1003c40040168800000000009201040000000000b4
:1003d4005400200080017800000000001100090092
:1003e4008481d8000000000040168800000000004e
:1003f4009201040000000000d422ef00000000007d
:10040400d622ef0000000000d2a2ef00000000009e
:10041400e022ef0000000000e222ef0000000000f4
:10042400dea2ef0000000000c822ef000000000080
:10043400ca22ef0000000000c622ef000000000006
:10044400a8a2ef00000006000000eb0000077800ff
:100454000c000900002f78000007eb0000000600e4
:1004640000a0fe008460a9000080fe000040060099
:020000040000fa
:10047400020800008000000000000000800f00005f
:1004840080000000000000000008000002000000de
:08049400000000000000000060
:020000040000fa
:10049c000200000003000000050000000a0000003c
:020000040000fa
:0200000401f009
:04000000e0b9000063
:020000040000fa
:0200000401f009
:04000400ff7f00007a
:020000040000fa
:0200000401f009
:04000800eeff000007
:020000040000fa
:0200000401f009
:04001400ffff0000ea
:00000001FF
